{
  "contractName": "PhotoNFTFactory",
  "abi": [
    {
      "anonymous": false,
      "inputs": [
        {
          "indexed": false,
          "internalType": "address",
          "name": "owner",
          "type": "address"
        },
        {
          "indexed": false,
          "internalType": "contract PhotoNFT",
          "name": "photoNFT",
          "type": "address"
        },
        {
          "indexed": false,
          "internalType": "string",
          "name": "nftName",
          "type": "string"
        },
        {
          "indexed": false,
          "internalType": "string",
          "name": "nftSymbol",
          "type": "string"
        },
        {
          "indexed": false,
          "internalType": "string",
          "name": "ipfsHashOfPhoto",
          "type": "string"
        }
      ],
      "name": "PhotoNFTCreated",
      "type": "event"
    },
    {
      "inputs": [
        {
          "internalType": "uint256",
          "name": "",
          "type": "uint256"
        }
      ],
      "name": "photoAddresses",
      "outputs": [
        {
          "internalType": "address",
          "name": "",
          "type": "address"
        }
      ],
      "stateMutability": "view",
      "type": "function",
      "constant": true
    },
    {
      "inputs": [
        {
          "internalType": "string",
          "name": "nftName",
          "type": "string"
        },
        {
          "internalType": "string",
          "name": "nftSymbol",
          "type": "string"
        },
        {
          "internalType": "string",
          "name": "ipfsHashOfPhoto",
          "type": "string"
        },
        {
          "internalType": "uint256",
          "name": "maxSupply",
          "type": "uint256"
        }
      ],
      "name": "createNewPhotoNFT",
      "outputs": [
        {
          "internalType": "address",
          "name": "",
          "type": "address"
        }
      ],
      "stateMutability": "nonpayable",
      "type": "function"
    },
    {
      "inputs": [],
      "name": "baseTokenURI",
      "outputs": [
        {
          "internalType": "string",
          "name": "",
          "type": "string"
        }
      ],
      "stateMutability": "pure",
      "type": "function",
      "constant": true
    },
    {
      "inputs": [
        {
          "internalType": "string",
          "name": "_ipfsHashOfPhoto",
          "type": "string"
        }
      ],
      "name": "getTokenURI",
      "outputs": [
        {
          "internalType": "string",
          "name": "",
          "type": "string"
        }
      ],
      "stateMutability": "pure",
      "type": "function",
      "constant": true
    }
  ],
  "bytecode": "0x608060405234801561001057600080fd5b5061423c806100206000396000f3fe60806040523480156200001157600080fd5b50600436106200006f576000357c01000000000000000000000000000000000000000000000000000000009004806321066cb11462000074578063d3e1f6e314620000aa578063d547cfb714620000e0578063dc0985c31462000102575b600080fd5b6200009260048036038101906200008c9190620004bc565b62000138565b604051620000a19190620005d0565b60405180910390f35b620000c86004803603810190620000c29190620005ed565b62000244565b604051620000d79190620006c7565b60405180910390f35b620000ea62000280565b604051620000f99190620006c7565b60405180910390f35b6200012060048036038101906200011a9190620006eb565b620002bd565b6040516200012f9190620005d0565b60405180910390f35b60008033905060006200014b8562000244565b9050600082888884886040516200016290620002fd565b620001729594939291906200072e565b604051809103906000f0801580156200018f573d6000803e3d6000fd5b5090506000819080600181540180825580915050600190039060005260206000200160009091909190916101000a81548173ffffffffffffffffffffffffffffffffffffffff021916908373ffffffffffffffffffffffffffffffffffffffff1602179055507faec0e4fe08000f7ab00306b79c5560218b9f428505f962c21010d34d75615bdb33828a8a8a6040516200022e9594939291906200080b565b60405180910390a1809350505050949350505050565b606060006200025262000280565b9050808360405160200162000269929190620008bf565b604051602081830303815290604052915050919050565b60606040518060400160405280601581526020017f68747470733a2f2f697066732e696f2f697066732f0000000000000000000000815250905090565b60008181548110620002ce57600080fd5b906000526020600020016000915054906101000a900473ffffffffffffffffffffffffffffffffffffffff1681565b61391f80620008e883390190565b6000604051905090565b600080fd5b600080fd5b600080fd5b600080fd5b6000601f19601f8301169050919050565b7f4e487b7100000000000000000000000000000000000000000000000000000000600052604160045260246000fd5b620003748262000329565b810181811067ffffffffffffffff821117156200039657620003956200033a565b5b80604052505050565b6000620003ab6200030b565b9050620003b9828262000369565b919050565b600067ffffffffffffffff821115620003dc57620003db6200033a565b5b620003e78262000329565b9050602081019050919050565b82818337600083830152505050565b60006200041a6200041484620003be565b6200039f565b90508281526020810184848401111562000439576200043862000324565b5b62000446848285620003f4565b509392505050565b600082601f8301126200046657620004656200031f565b5b81356200047884826020860162000403565b91505092915050565b6000819050919050565b620004968162000481565b8114620004a257600080fd5b50565b600081359050620004b6816200048b565b92915050565b60008060008060808587031215620004d957620004d862000315565b5b600085013567ffffffffffffffff811115620004fa57620004f96200031a565b5b62000508878288016200044e565b945050602085013567ffffffffffffffff8111156200052c576200052b6200031a565b5b6200053a878288016200044e565b935050604085013567ffffffffffffffff8111156200055e576200055d6200031a565b5b6200056c878288016200044e565b92505060606200057f87828801620004a5565b91505092959194509250565b600073ffffffffffffffffffffffffffffffffffffffff82169050919050565b6000620005b8826200058b565b9050919050565b620005ca81620005ab565b82525050565b6000602082019050620005e76000830184620005bf565b92915050565b60006020828403121562000606576200060562000315565b5b600082013567ffffffffffffffff8111156200062757620006266200031a565b5b62000635848285016200044e565b91505092915050565b600081519050919050565b600082825260208201905092915050565b60005b838110156200067a5780820151818401526020810190506200065d565b60008484015250505050565b600062000693826200063e565b6200069f818562000649565b9350620006b18185602086016200065a565b620006bc8162000329565b840191505092915050565b60006020820190508181036000830152620006e3818462000686565b905092915050565b60006020828403121562000704576200070362000315565b5b60006200071484828501620004a5565b91505092915050565b620007288162000481565b82525050565b600060a082019050620007456000830188620005bf565b818103602083015262000759818762000686565b905081810360408301526200076f818662000686565b9050818103606083015262000785818562000686565b90506200079660808301846200071d565b9695505050505050565b6000819050919050565b6000620007cb620007c5620007bf846200058b565b620007a0565b6200058b565b9050919050565b6000620007df82620007aa565b9050919050565b6000620007f382620007d2565b9050919050565b6200080581620007e6565b82525050565b600060a082019050620008226000830188620005bf565b620008316020830187620007fa565b818103604083015262000845818662000686565b905081810360608301526200085b818562000686565b9050818103608083015262000871818462000686565b90509695505050505050565b600081905092915050565b600062000895826200063e565b620008a181856200087d565b9350620008b38185602086016200065a565b80840191505092915050565b6000620008cd828562000888565b9150620008db828462000888565b9150819050939250505056fe608060405260006007553480156200001657600080fd5b506040516200391f3803806200391f83398181016040528101906200003c919062000797565b838381600090816200004f919062000ac3565b50806001908162000061919062000ac3565b5050506200007e82620000a6640100000000026401000000009004565b506200009a8582620000c3640100000000026401000000009004565b50505050505062000d91565b60008160069081620000b9919062000ac3565b5060019050919050565b6000806001600754620000d7919062000bd9565b90505b8281116200012d5760076000815480929190620000f79062000c14565b919050555062000117848262000138640100000000026401000000009004565b8080620001249062000c14565b915050620000da565b506001905092915050565b600073ffffffffffffffffffffffffffffffffffffffff168273ffffffffffffffffffffffffffffffffffffffff1603620001aa576040517f08c379a0000000000000000000000000000000000000000000000000000000008152600401620001a19062000cc2565b60405180910390fd5b620001c481620003a2640100000000026401000000009004565b1562000207576040517f08c379a0000000000000000000000000000000000000000000000000000000008152600401620001fe9062000d34565b60405180910390fd5b62000226600083836001620003f4640100000000026401000000009004565b6200024081620003a2640100000000026401000000009004565b1562000283576040517f08c379a00000000000000000000000000000000000000000000000000000000081526004016200027a9062000d34565b60405180910390fd5b6001600360008473ffffffffffffffffffffffffffffffffffffffff1673ffffffffffffffffffffffffffffffffffffffff16815260200190815260200160002060008282540192505081905550816002600083815260200190815260200160002060006101000a81548173ffffffffffffffffffffffffffffffffffffffff021916908373ffffffffffffffffffffffffffffffffffffffff160217905550808273ffffffffffffffffffffffffffffffffffffffff16600073ffffffffffffffffffffffffffffffffffffffff167fddf252ad1be2c89b69c2b068fc378daa952ba7f163c4a11628f55a4df523b3ef60405160405180910390a46200039e60008383600162000521640100000000026401000000009004565b5050565b60008073ffffffffffffffffffffffffffffffffffffffff16620003d58362000527640100000000026401000000009004565b73ffffffffffffffffffffffffffffffffffffffff1614159050919050565b60018111156200051b57600073ffffffffffffffffffffffffffffffffffffffff168473ffffffffffffffffffffffffffffffffffffffff16146200048c5780600360008673ffffffffffffffffffffffffffffffffffffffff1673ffffffffffffffffffffffffffffffffffffffff168152602001908152602001600020600082825462000484919062000d56565b925050819055505b600073ffffffffffffffffffffffffffffffffffffffff168373ffffffffffffffffffffffffffffffffffffffff16146200051a5780600360008573ffffffffffffffffffffffffffffffffffffffff1673ffffffffffffffffffffffffffffffffffffffff168152602001908152602001600020600082825462000512919062000bd9565b925050819055505b5b50505050565b50505050565b60006002600083815260200190815260200160002060009054906101000a900473ffffffffffffffffffffffffffffffffffffffff169050919050565b6000604051905090565b600080fd5b600080fd5b600073ffffffffffffffffffffffffffffffffffffffff82169050919050565b6000620005a58262000578565b9050919050565b620005b78162000598565b8114620005c357600080fd5b50565b600081519050620005d781620005ac565b92915050565b600080fd5b600080fd5b6000601f19601f8301169050919050565b7f4e487b7100000000000000000000000000000000000000000000000000000000600052604160045260246000fd5b6200063282620005e7565b810181811067ffffffffffffffff82111715620006545762000653620005f8565b5b80604052505050565b60006200066962000564565b905062000677828262000627565b919050565b600067ffffffffffffffff8211156200069a5762000699620005f8565b5b620006a582620005e7565b9050602081019050919050565b60005b83811015620006d2578082015181840152602081019050620006b5565b60008484015250505050565b6000620006f5620006ef846200067c565b6200065d565b905082815260208101848484011115620007145762000713620005e2565b5b62000721848285620006b2565b509392505050565b600082601f830112620007415762000740620005dd565b5b815162000753848260208601620006de565b91505092915050565b6000819050919050565b62000771816200075c565b81146200077d57600080fd5b50565b600081519050620007918162000766565b92915050565b600080600080600060a08688031215620007b657620007b56200056e565b5b6000620007c688828901620005c6565b955050602086015167ffffffffffffffff811115620007ea57620007e962000573565b5b620007f88882890162000729565b945050604086015167ffffffffffffffff8111156200081c576200081b62000573565b5b6200082a8882890162000729565b935050606086015167ffffffffffffffff8111156200084e576200084d62000573565b5b6200085c8882890162000729565b92505060806200086f8882890162000780565b9150509295509295909350565b600081519050919050565b7f4e487b7100000000000000000000000000000000000000000000000000000000600052602260045260246000fd5b60006002820490506001821680620008cf57607f821691505b602082108103620008e557620008e462000887565b5b50919050565b60008190508160005260206000209050919050565b60006020601f8301049050919050565b60008160020a8302905092915050565b600060088302620009527fffffffffffffffffffffffffffffffffffffffffffffffffffffffffffffffff8262000910565b6200095e868362000910565b95508019841693508086168417925050509392505050565b6000819050919050565b6000620009a16200099b62000995846200075c565b62000976565b6200075c565b9050919050565b6000819050919050565b620009bd8362000980565b620009d5620009cc82620009a8565b84845462000920565b825550505050565b600090565b620009ec620009dd565b620009f9818484620009b2565b505050565b5b8181101562000a215762000a15600082620009e2565b600181019050620009ff565b5050565b601f82111562000a705762000a3a81620008eb565b62000a458462000900565b8101602085101562000a55578190505b62000a6d62000a648562000900565b830182620009fe565b50505b505050565b60008160020a8304905092915050565b600062000a986000198460080262000a75565b1980831691505092915050565b600062000ab3838362000a85565b9150826002028217905092915050565b62000ace826200087c565b67ffffffffffffffff81111562000aea5762000ae9620005f8565b5b62000af68254620008b6565b62000b0382828562000a25565b600060209050601f83116001811462000b3b576000841562000b26578287015190505b62000b32858262000aa5565b86555062000ba2565b601f19841662000b4b86620008eb565b60005b8281101562000b755784890151825560018201915060208501945060208101905062000b4e565b8683101562000b95578489015162000b91601f89168262000a85565b8355505b6001600288020188555050505b505050505050565b7f4e487b7100000000000000000000000000000000000000000000000000000000600052601160045260246000fd5b600062000be6826200075c565b915062000bf3836200075c565b925082820190508082111562000c0e5762000c0d62000baa565b5b92915050565b600062000c21826200075c565b91507fffffffffffffffffffffffffffffffffffffffffffffffffffffffffffffffff820362000c565762000c5562000baa565b5b600182019050919050565b600082825260208201905092915050565b7f4552433732313a206d696e7420746f20746865207a65726f2061646472657373600082015250565b600062000caa60208362000c61565b915062000cb78262000c72565b602082019050919050565b6000602082019050818103600083015262000cdd8162000c9b565b9050919050565b7f4552433732313a20746f6b656e20616c7265616479206d696e74656400000000600082015250565b600062000d1c601c8362000c61565b915062000d298262000ce4565b602082019050919050565b6000602082019050818103600083015262000d4f8162000d0d565b9050919050565b600062000d63826200075c565b915062000d70836200075c565b925082820390508181111562000d8b5762000d8a62000baa565b5b92915050565b612b7e8062000da16000396000f3fe608060405234801561001057600080fd5b506004361061011d576000357c0100000000000000000000000000000000000000000000000000000000900480636352211e116100b4578063b4a5b64611610083578063b4a5b646146102ee578063b88d4fde1461030c578063c87b56dd14610328578063e985e9c5146103585761011d565b80636352211e1461025457806370a082311461028457806395d89b41146102b4578063a22cb465146102d25761011d565b806323b872dd116100f057806323b872dd146101bc57806340c10f19146101d857806342842e0e1461020857806355f804b3146102245761011d565b806301ffc9a71461012257806306fdde0314610152578063081812fc14610170578063095ea7b3146101a0575b600080fd5b61013c60048036038101906101379190611a2d565b610388565b6040516101499190611a75565b60405180910390f35b61015a61046a565b6040516101679190611b20565b60405180910390f35b61018a60048036038101906101859190611b78565b6104fc565b6040516101979190611be6565b60405180910390f35b6101ba60048036038101906101b59190611c2d565b610542565b005b6101d660048036038101906101d19190611c6d565b610659565b005b6101f260048036038101906101ed9190611c2d565b6106b9565b6040516101ff9190611a75565b60405180910390f35b610222600480360381019061021d9190611c6d565b610715565b005b61023e60048036038101906102399190611df5565b610735565b60405161024b9190611a75565b60405180910390f35b61026e60048036038101906102699190611b78565b610750565b60405161027b9190611be6565b60405180910390f35b61029e60048036038101906102999190611e3e565b6107d6565b6040516102ab9190611e7a565b60405180910390f35b6102bc61088d565b6040516102c99190611b20565b60405180910390f35b6102ec60048036038101906102e79190611ec1565b61091f565b005b6102f6610935565b6040516103039190611e7a565b60405180910390f35b61032660048036038101906103219190611fa2565b61093b565b005b610342600480360381019061033d9190611b78565b61099d565b60405161034f9190611b20565b60405180910390f35b610372600480360381019061036d9190612025565b610a05565b60405161037f9190611a75565b60405180910390f35b60007f80ac58cd000000000000000000000000000000000000000000000000000000007bffffffffffffffffffffffffffffffffffffffffffffffffffffffff1916827bffffffffffffffffffffffffffffffffffffffffffffffffffffffff1916148061045357507f5b5e139f000000000000000000000000000000000000000000000000000000007bffffffffffffffffffffffffffffffffffffffffffffffffffffffff1916827bffffffffffffffffffffffffffffffffffffffffffffffffffffffff1916145b80610463575061046282610a99565b5b9050919050565b60606000805461047990612094565b80601f01602080910402602001604051908101604052809291908181526020018280546104a590612094565b80156104f25780601f106104c7576101008083540402835291602001916104f2565b820191906000526020600020905b8154815290600101906020018083116104d557829003601f168201915b5050505050905090565b600061050782610b03565b6004600083815260200190815260200160002060009054906101000a900473ffffffffffffffffffffffffffffffffffffffff169050919050565b600061054d82610750565b90508073ffffffffffffffffffffffffffffffffffffffff168373ffffffffffffffffffffffffffffffffffffffff16036105bd576040517f08c379a00000000000000000000000000000000000000000000000000000000081526004016105b490612137565b60405180910390fd5b8073ffffffffffffffffffffffffffffffffffffffff166105dc610b4e565b73ffffffffffffffffffffffffffffffffffffffff16148061060b575061060a81610605610b4e565b610a05565b5b61064a576040517f08c379a0000000000000000000000000000000000000000000000000000000008152600401610641906121c9565b60405180910390fd5b6106548383610b56565b505050565b61066a610664610b4e565b82610c0f565b6106a9576040517f08c379a00000000000000000000000000000000000000000000000000000000081526004016106a09061225b565b60405180910390fd5b6106b4838383610ca4565b505050565b60008060016007546106cb91906122aa565b90505b82811161070a57600760008154809291906106e8906122de565b91905055506106f78482610f9d565b8080610702906122de565b9150506106ce565b506001905092915050565b6107308383836040518060200160405280600081525061093b565b505050565b6000816006908161074691906124d8565b5060019050919050565b60008061075c836111ba565b9050600073ffffffffffffffffffffffffffffffffffffffff168173ffffffffffffffffffffffffffffffffffffffff16036107cd576040517f08c379a00000000000000000000000000000000000000000000000000000000081526004016107c4906125f6565b60405180910390fd5b80915050919050565b60008073ffffffffffffffffffffffffffffffffffffffff168273ffffffffffffffffffffffffffffffffffffffff1603610846576040517f08c379a000000000000000000000000000000000000000000000000000000000815260040161083d90612688565b60405180910390fd5b600360008373ffffffffffffffffffffffffffffffffffffffff1673ffffffffffffffffffffffffffffffffffffffff168152602001908152602001600020549050919050565b60606001805461089c90612094565b80601f01602080910402602001604051908101604052809291908181526020018280546108c890612094565b80156109155780601f106108ea57610100808354040283529160200191610915565b820191906000526020600020905b8154815290600101906020018083116108f857829003601f168201915b5050505050905090565b61093161092a610b4e565b83836111f7565b5050565b60075481565b61094c610946610b4e565b83610c0f565b61098b576040517f08c379a00000000000000000000000000000000000000000000000000000000081526004016109829061225b565b60405180910390fd5b61099784848484611363565b50505050565b60606109a882610b03565b60006109b26113bf565b905060008151116109d257604051806020016040528060008152506109fd565b806109dc84611451565b6040516020016109ed9291906126e4565b6040516020818303038152906040525b915050919050565b6000600560008473ffffffffffffffffffffffffffffffffffffffff1673ffffffffffffffffffffffffffffffffffffffff16815260200190815260200160002060008373ffffffffffffffffffffffffffffffffffffffff1673ffffffffffffffffffffffffffffffffffffffff16815260200190815260200160002060009054906101000a900460ff16905092915050565b60007f01ffc9a7000000000000000000000000000000000000000000000000000000007bffffffffffffffffffffffffffffffffffffffffffffffffffffffff1916827bffffffffffffffffffffffffffffffffffffffffffffffffffffffff1916149050919050565b610b0c8161151f565b610b4b576040517f08c379a0000000000000000000000000000000000000000000000000000000008152600401610b42906125f6565b60405180910390fd5b50565b600033905090565b816004600083815260200190815260200160002060006101000a81548173ffffffffffffffffffffffffffffffffffffffff021916908373ffffffffffffffffffffffffffffffffffffffff160217905550808273ffffffffffffffffffffffffffffffffffffffff16610bc983610750565b73ffffffffffffffffffffffffffffffffffffffff167f8c5be1e5ebec7d5bd14f71427d1e84f3dd0314c0f7b2291e5b200ac8c7c3b92560405160405180910390a45050565b600080610c1b83610750565b90508073ffffffffffffffffffffffffffffffffffffffff168473ffffffffffffffffffffffffffffffffffffffff161480610c5d5750610c5c8185610a05565b5b80610c9b57508373ffffffffffffffffffffffffffffffffffffffff16610c83846104fc565b73ffffffffffffffffffffffffffffffffffffffff16145b91505092915050565b8273ffffffffffffffffffffffffffffffffffffffff16610cc482610750565b73ffffffffffffffffffffffffffffffffffffffff1614610d1a576040517f08c379a0000000000000000000000000000000000000000000000000000000008152600401610d119061277a565b60405180910390fd5b600073ffffffffffffffffffffffffffffffffffffffff168273ffffffffffffffffffffffffffffffffffffffff1603610d89576040517f08c379a0000000000000000000000000000000000000000000000000000000008152600401610d809061280c565b60405180910390fd5b610d968383836001611560565b8273ffffffffffffffffffffffffffffffffffffffff16610db682610750565b73ffffffffffffffffffffffffffffffffffffffff1614610e0c576040517f08c379a0000000000000000000000000000000000000000000000000000000008152600401610e039061277a565b60405180910390fd5b6004600082815260200190815260200160002060006101000a81549073ffffffffffffffffffffffffffffffffffffffff02191690556001600360008573ffffffffffffffffffffffffffffffffffffffff1673ffffffffffffffffffffffffffffffffffffffff168152602001908152602001600020600082825403925050819055506001600360008473ffffffffffffffffffffffffffffffffffffffff1673ffffffffffffffffffffffffffffffffffffffff16815260200190815260200160002060008282540192505081905550816002600083815260200190815260200160002060006101000a81548173ffffffffffffffffffffffffffffffffffffffff021916908373ffffffffffffffffffffffffffffffffffffffff160217905550808273ffffffffffffffffffffffffffffffffffffffff168473ffffffffffffffffffffffffffffffffffffffff167fddf252ad1be2c89b69c2b068fc378daa952ba7f163c4a11628f55a4df523b3ef60405160405180910390a4610f988383836001611686565b505050565b600073ffffffffffffffffffffffffffffffffffffffff168273ffffffffffffffffffffffffffffffffffffffff160361100c576040517f08c379a000000000000000000000000000000000000000000000000000000000815260040161100390612878565b60405180910390fd5b6110158161151f565b15611055576040517f08c379a000000000000000000000000000000000000000000000000000000000815260040161104c906128e4565b60405180910390fd5b611063600083836001611560565b61106c8161151f565b156110ac576040517f08c379a00000000000000000000000000000000000000000000000000000000081526004016110a3906128e4565b60405180910390fd5b6001600360008473ffffffffffffffffffffffffffffffffffffffff1673ffffffffffffffffffffffffffffffffffffffff16815260200190815260200160002060008282540192505081905550816002600083815260200190815260200160002060006101000a81548173ffffffffffffffffffffffffffffffffffffffff021916908373ffffffffffffffffffffffffffffffffffffffff160217905550808273ffffffffffffffffffffffffffffffffffffffff16600073ffffffffffffffffffffffffffffffffffffffff167fddf252ad1be2c89b69c2b068fc378daa952ba7f163c4a11628f55a4df523b3ef60405160405180910390a46111b6600083836001611686565b5050565b60006002600083815260200190815260200160002060009054906101000a900473ffffffffffffffffffffffffffffffffffffffff169050919050565b8173ffffffffffffffffffffffffffffffffffffffff168373ffffffffffffffffffffffffffffffffffffffff1603611265576040517f08c379a000000000000000000000000000000000000000000000000000000000815260040161125c90612950565b60405180910390fd5b80600560008573ffffffffffffffffffffffffffffffffffffffff1673ffffffffffffffffffffffffffffffffffffffff16815260200190815260200160002060008473ffffffffffffffffffffffffffffffffffffffff1673ffffffffffffffffffffffffffffffffffffffff16815260200190815260200160002060006101000a81548160ff0219169083151502179055508173ffffffffffffffffffffffffffffffffffffffff168373ffffffffffffffffffffffffffffffffffffffff167f17307eab39ab6107e8899845ad3d59bd9653f200f220920489ca2b5937696c31836040516113569190611a75565b60405180910390a3505050565b61136e848484610ca4565b61137a8484848461168c565b6113b9576040517f08c379a00000000000000000000000000000000000000000000000000000000081526004016113b0906129e2565b60405180910390fd5b50505050565b6060600680546113ce90612094565b80601f01602080910402602001604051908101604052809291908181526020018280546113fa90612094565b80156114475780601f1061141c57610100808354040283529160200191611447565b820191906000526020600020905b81548152906001019060200180831161142a57829003601f168201915b5050505050905090565b6060600060016114608461184b565b01905060008167ffffffffffffffff81111561147f5761147e611cca565b5b6040519080825280601f01601f1916602001820160405280156114b15781602001600182028036833780820191505090505b509050600082602001820190505b600115611514578080600190039150507f3031323334353637383961626364656600000000000000000000000000000000600a86061a8153600a858161150857611507612a02565b5b049450600085036114bf575b819350505050919050565b60008073ffffffffffffffffffffffffffffffffffffffff16611541836111ba565b73ffffffffffffffffffffffffffffffffffffffff1614159050919050565b600181111561168057600073ffffffffffffffffffffffffffffffffffffffff168473ffffffffffffffffffffffffffffffffffffffff16146115f45780600360008673ffffffffffffffffffffffffffffffffffffffff1673ffffffffffffffffffffffffffffffffffffffff16815260200190815260200160002060008282546115ec9190612a31565b925050819055505b600073ffffffffffffffffffffffffffffffffffffffff168373ffffffffffffffffffffffffffffffffffffffff161461167f5780600360008573ffffffffffffffffffffffffffffffffffffffff1673ffffffffffffffffffffffffffffffffffffffff168152602001908152602001600020600082825461167791906122aa565b925050819055505b5b50505050565b50505050565b60006116ad8473ffffffffffffffffffffffffffffffffffffffff1661199e565b1561183e578373ffffffffffffffffffffffffffffffffffffffff1663150b7a026116d6610b4e565b8786866040518563ffffffff167c01000000000000000000000000000000000000000000000000000000000281526004016117149493929190612aba565b6020604051808303816000875af192505050801561175057506040513d601f19601f8201168201806040525081019061174d9190612b1b565b60015b6117d2573d8060008114611780576040519150601f19603f3d011682016040523d82523d6000602084013e611785565b606091505b5060008151036117ca576040517f08c379a00000000000000000000000000000000000000000000000000000000081526004016117c1906129e2565b60405180910390fd5b805181602001fd5b63150b7a027c0100000000000000000000000000000000000000000000000000000000027bffffffffffffffffffffffffffffffffffffffffffffffffffffffff1916817bffffffffffffffffffffffffffffffffffffffffffffffffffffffff191614915050611843565b600190505b949350505050565b600080600090507a184f03e93ff9f4daa797ed6e38ed64bf6a1f01000000000000000083106118a9577a184f03e93ff9f4daa797ed6e38ed64bf6a1f010000000000000000838161189f5761189e612a02565b5b0492506040810190505b6d04ee2d6d415b85acef810000000083106118e6576d04ee2d6d415b85acef810000000083816118dc576118db612a02565b5b0492506020810190505b662386f26fc10000831061191557662386f26fc10000838161190b5761190a612a02565b5b0492506010810190505b6305f5e100831061193e576305f5e100838161193457611933612a02565b5b0492506008810190505b612710831061196357612710838161195957611958612a02565b5b0492506004810190505b60648310611986576064838161197c5761197b612a02565b5b0492506002810190505b600a8310611995576001810190505b80915050919050565b6000808273ffffffffffffffffffffffffffffffffffffffff163b119050919050565b6000604051905090565b600080fd5b600080fd5b60007fffffffff0000000000000000000000000000000000000000000000000000000082169050919050565b611a0a816119d5565b8114611a1557600080fd5b50565b600081359050611a2781611a01565b92915050565b600060208284031215611a4357611a426119cb565b5b6000611a5184828501611a18565b91505092915050565b60008115159050919050565b611a6f81611a5a565b82525050565b6000602082019050611a8a6000830184611a66565b92915050565b600081519050919050565b600082825260208201905092915050565b60005b83811015611aca578082015181840152602081019050611aaf565b60008484015250505050565b6000601f19601f8301169050919050565b6000611af282611a90565b611afc8185611a9b565b9350611b0c818560208601611aac565b611b1581611ad6565b840191505092915050565b60006020820190508181036000830152611b3a8184611ae7565b905092915050565b6000819050919050565b611b5581611b42565b8114611b6057600080fd5b50565b600081359050611b7281611b4c565b92915050565b600060208284031215611b8e57611b8d6119cb565b5b6000611b9c84828501611b63565b91505092915050565b600073ffffffffffffffffffffffffffffffffffffffff82169050919050565b6000611bd082611ba5565b9050919050565b611be081611bc5565b82525050565b6000602082019050611bfb6000830184611bd7565b92915050565b611c0a81611bc5565b8114611c1557600080fd5b50565b600081359050611c2781611c01565b92915050565b60008060408385031215611c4457611c436119cb565b5b6000611c5285828601611c18565b9250506020611c6385828601611b63565b9150509250929050565b600080600060608486031215611c8657611c856119cb565b5b6000611c9486828701611c18565b9350506020611ca586828701611c18565b9250506040611cb686828701611b63565b9150509250925092565b600080fd5b600080fd5b7f4e487b7100000000000000000000000000000000000000000000000000000000600052604160045260246000fd5b611d0282611ad6565b810181811067ffffffffffffffff82111715611d2157611d20611cca565b5b80604052505050565b6000611d346119c1565b9050611d408282611cf9565b919050565b600067ffffffffffffffff821115611d6057611d5f611cca565b5b611d6982611ad6565b9050602081019050919050565b82818337600083830152505050565b6000611d98611d9384611d45565b611d2a565b905082815260208101848484011115611db457611db3611cc5565b5b611dbf848285611d76565b509392505050565b600082601f830112611ddc57611ddb611cc0565b5b8135611dec848260208601611d85565b91505092915050565b600060208284031215611e0b57611e0a6119cb565b5b600082013567ffffffffffffffff811115611e2957611e286119d0565b5b611e3584828501611dc7565b91505092915050565b600060208284031215611e5457611e536119cb565b5b6000611e6284828501611c18565b91505092915050565b611e7481611b42565b82525050565b6000602082019050611e8f6000830184611e6b565b92915050565b611e9e81611a5a565b8114611ea957600080fd5b50565b600081359050611ebb81611e95565b92915050565b60008060408385031215611ed857611ed76119cb565b5b6000611ee685828601611c18565b9250506020611ef785828601611eac565b9150509250929050565b600067ffffffffffffffff821115611f1c57611f1b611cca565b5b611f2582611ad6565b9050602081019050919050565b6000611f45611f4084611f01565b611d2a565b905082815260208101848484011115611f6157611f60611cc5565b5b611f6c848285611d76565b509392505050565b600082601f830112611f8957611f88611cc0565b5b8135611f99848260208601611f32565b91505092915050565b60008060008060808587031215611fbc57611fbb6119cb565b5b6000611fca87828801611c18565b9450506020611fdb87828801611c18565b9350506040611fec87828801611b63565b925050606085013567ffffffffffffffff81111561200d5761200c6119d0565b5b61201987828801611f74565b91505092959194509250565b6000806040838503121561203c5761203b6119cb565b5b600061204a85828601611c18565b925050602061205b85828601611c18565b9150509250929050565b7f4e487b7100000000000000000000000000000000000000000000000000000000600052602260045260246000fd5b600060028204905060018216806120ac57607f821691505b6020821081036120bf576120be612065565b5b50919050565b7f4552433732313a20617070726f76616c20746f2063757272656e74206f776e6560008201527f7200000000000000000000000000000000000000000000000000000000000000602082015250565b6000612121602183611a9b565b915061212c826120c5565b604082019050919050565b6000602082019050818103600083015261215081612114565b9050919050565b7f4552433732313a20617070726f76652063616c6c6572206973206e6f7420746f60008201527f6b656e206f776e6572206f7220617070726f76656420666f7220616c6c000000602082015250565b60006121b3603d83611a9b565b91506121be82612157565b604082019050919050565b600060208201905081810360008301526121e2816121a6565b9050919050565b7f4552433732313a2063616c6c6572206973206e6f7420746f6b656e206f776e6560008201527f72206f7220617070726f76656400000000000000000000000000000000000000602082015250565b6000612245602d83611a9b565b9150612250826121e9565b604082019050919050565b6000602082019050818103600083015261227481612238565b9050919050565b7f4e487b7100000000000000000000000000000000000000000000000000000000600052601160045260246000fd5b60006122b582611b42565b91506122c083611b42565b92508282019050808211156122d8576122d761227b565b5b92915050565b60006122e982611b42565b91507fffffffffffffffffffffffffffffffffffffffffffffffffffffffffffffffff820361231b5761231a61227b565b5b600182019050919050565b60008190508160005260206000209050919050565b60006020601f8301049050919050565b60008160020a8302905092915050565b60006008830261238b7fffffffffffffffffffffffffffffffffffffffffffffffffffffffffffffffff8261234b565b612395868361234b565b95508019841693508086168417925050509392505050565b6000819050919050565b60006123d26123cd6123c884611b42565b6123ad565b611b42565b9050919050565b6000819050919050565b6123ec836123b7565b6124006123f8826123d9565b84845461235b565b825550505050565b600090565b612415612408565b6124208184846123e3565b505050565b5b818110156124445761243960008261240d565b600181019050612426565b5050565b601f8211156124895761245a81612326565b6124638461233b565b81016020851015612472578190505b61248661247e8561233b565b830182612425565b50505b505050565b60008160020a8304905092915050565b60006124af6000198460080261248e565b1980831691505092915050565b60006124c8838361249e565b9150826002028217905092915050565b6124e182611a90565b67ffffffffffffffff8111156124fa576124f9611cca565b5b6125048254612094565b61250f828285612448565b600060209050601f8311600181146125425760008415612530578287015190505b61253a85826124bc565b8655506125a2565b601f19841661255086612326565b60005b8281101561257857848901518255600182019150602085019450602081019050612553565b868310156125955784890151612591601f89168261249e565b8355505b6001600288020188555050505b505050505050565b7f4552433732313a20696e76616c696420746f6b656e2049440000000000000000600082015250565b60006125e0601883611a9b565b91506125eb826125aa565b602082019050919050565b6000602082019050818103600083015261260f816125d3565b9050919050565b7f4552433732313a2061646472657373207a65726f206973206e6f74206120766160008201527f6c6964206f776e65720000000000000000000000000000000000000000000000602082015250565b6000612672602983611a9b565b915061267d82612616565b604082019050919050565b600060208201905081810360008301526126a181612665565b9050919050565b600081905092915050565b60006126be82611a90565b6126c881856126a8565b93506126d8818560208601611aac565b80840191505092915050565b60006126f082856126b3565b91506126fc82846126b3565b91508190509392505050565b7f4552433732313a207472616e736665722066726f6d20696e636f72726563742060008201527f6f776e6572000000000000000000000000000000000000000000000000000000602082015250565b6000612764602583611a9b565b915061276f82612708565b604082019050919050565b6000602082019050818103600083015261279381612757565b9050919050565b7f4552433732313a207472616e7366657220746f20746865207a65726f2061646460008201527f7265737300000000000000000000000000000000000000000000000000000000602082015250565b60006127f6602483611a9b565b91506128018261279a565b604082019050919050565b60006020820190508181036000830152612825816127e9565b9050919050565b7f4552433732313a206d696e7420746f20746865207a65726f2061646472657373600082015250565b6000612862602083611a9b565b915061286d8261282c565b602082019050919050565b6000602082019050818103600083015261289181612855565b9050919050565b7f4552433732313a20746f6b656e20616c7265616479206d696e74656400000000600082015250565b60006128ce601c83611a9b565b91506128d982612898565b602082019050919050565b600060208201905081810360008301526128fd816128c1565b9050919050565b7f4552433732313a20617070726f766520746f2063616c6c657200000000000000600082015250565b600061293a601983611a9b565b915061294582612904565b602082019050919050565b600060208201905081810360008301526129698161292d565b9050919050565b7f4552433732313a207472616e7366657220746f206e6f6e20455243373231526560008201527f63656976657220696d706c656d656e7465720000000000000000000000000000602082015250565b60006129cc603283611a9b565b91506129d782612970565b604082019050919050565b600060208201905081810360008301526129fb816129bf565b9050919050565b7f4e487b7100000000000000000000000000000000000000000000000000000000600052601260045260246000fd5b6000612a3c82611b42565b9150612a4783611b42565b9250828203905081811115612a5f57612a5e61227b565b5b92915050565b600081519050919050565b600082825260208201905092915050565b6000612a8c82612a65565b612a968185612a70565b9350612aa6818560208601611aac565b612aaf81611ad6565b840191505092915050565b6000608082019050612acf6000830187611bd7565b612adc6020830186611bd7565b612ae96040830185611e6b565b8181036060830152612afb8184612a81565b905095945050505050565b600081519050612b1581611a01565b92915050565b600060208284031215612b3157612b306119cb565b5b6000612b3f84828501612b06565b9150509291505056fea26469706673582212203a5a52da6d23e713b3717f1eef3f83b34977a8175fda8703d76925b19397ab8364736f6c63430008110033a26469706673582212203ae86a8d49c9fb781a8b0e27f9268e229286ac1797527a50b24eaea8b0502b4464736f6c63430008110033",
  "immutableReferences": {},
  "source": "// SPDX-License-Identifier: MIT\npragma solidity ^0.8.0;\npragma experimental ABIEncoderV2;\n\n\nimport \"@openzeppelin/contracts/utils/math/SafeMath.sol\";\nimport \"@openzeppelin/contracts/access/Ownable.sol\";\nimport \"@openzeppelin/contracts/utils/Strings.sol\";\nimport  \"./PhotoNFT.sol\";\n\n/**\n * @notice - This is the factory contract for a NFT of photo\n */\ncontract PhotoNFTFactory {\n    using SafeMath for uint256;\n    using Strings for string;\n\n    address[] public photoAddresses;\n    event PhotoNFTCreated (\n        address owner,\n        PhotoNFT photoNFT,\n        string nftName, \n        string nftSymbol, \n        string ipfsHashOfPhoto\n    );\n    \n    function createNewPhotoNFT(\n        string memory nftName,\n        string memory nftSymbol,\n        string memory ipfsHashOfPhoto,\n        uint256 maxSupply\n    ) public returns (address) {\n        \n        /// [Note]: Initial owner of photoNFT is msg.sender\n        address owner = msg.sender; \n        string memory tokenURI = getTokenURI(ipfsHashOfPhoto); /// [Note]: IPFS hash + URL\n        PhotoNFT photoNFT =\n            new PhotoNFT(\n                owner,\n                nftName,\n                nftSymbol,\n                tokenURI,\n                maxSupply\n            );\n        photoAddresses.push(address(photoNFT));\n\n        emit PhotoNFTCreated(\n            msg.sender,\n            photoNFT,\n            nftName,\n            nftSymbol,\n            ipfsHashOfPhoto\n        );\n        return address(photoNFT);\n    }\n\n    ///-----------------\n    /// Getter methods\n    ///-----------------\n    function baseTokenURI() public pure returns (string memory) {\n        return \"https://ipfs.io/ipfs/\";\n    }\n\n    function getTokenURI(string memory _ipfsHashOfPhoto)\n        public\n        pure\n        returns (string memory)\n    {\n        string memory _url = baseTokenURI();\n        return  string.concat( _url, _ipfsHashOfPhoto);\n    }\n}\n",
  "sourcePath": "/home/fibo/Documents/workspace/nftFactory/contracts/PhotoNFTFactory.sol",
  "compiler": {
    "name": "solc",
    "version": "0.8.17+commit.8df45f5f.Emscripten.clang"
  },
  "schemaVersion": "3.4.11",
  "updatedAt": "2023-01-25T15:01:08.802Z",
  "networkType": "ethereum",
  "devdoc": {
    "kind": "dev",
    "methods": {},
    "version": 1
  },
  "userdoc": {
    "kind": "user",
    "methods": {
      "baseTokenURI()": {
        "notice": "----------------- Getter methods -----------------"
      }
    },
    "notice": "- This is the factory contract for a NFT of photo",
    "version": 1
  }
}